{
  "contractName": "Hasher",
  "abi": [
    {
      "constant": true,
      "inputs": [
        {
          "name": "_c",
          "type": "uint8"
        },
        {
          "name": "_salt",
          "type": "uint256"
        }
      ],
      "name": "hash",
      "outputs": [
        {
          "name": "",
          "type": "bytes32"
        }
      ],
      "payable": false,
      "stateMutability": "pure",
      "type": "function"
    }
  ],
  "bytecode": "0x608060405234801561001057600080fd5b50610113806100206000396000f300608060405260043610603f576000357c0100000000000000000000000000000000000000000000000000000000900463ffffffff16806367ef4c13146044575b600080fd5b348015604f57600080fd5b506079600480360381019080803560ff169060200190929190803590602001909291905050506097565b60405180826000191660001916815260200191505060405180910390f35b60008282604051808360ff1660ff167f01000000000000000000000000000000000000000000000000000000000000000281526001018281526020019250505060405180910390209050929150505600a165627a7a7230582047d357bbe1c783a849fd8e3a018901bb9d1f6c4536bcbd6042923a650ff6f8130029",
  "source": "pragma solidity ^0.4.23;\n\ncontract Hasher {\n\n    /**\n     * @dev Returns the commitment. Must only be called locally\n     * @param _c The move\n     * @param _salt The salt to increase entropy\n     */\n    function hash(uint8 _c, uint256 _salt) public pure returns(bytes32) {\n        return keccak256(_c, _salt);\n    }\n}",
  "sourcePath": "/var/www/html/truffle/rps/contracts/Hasher.sol",
  "compiler": {
    "name": "solc",
    "version": "0.4.24+commit.e67f0147.Emscripten.clang"
  },
  "schemaVersion": "2.0.0",
  "updatedAt": "2018-06-06T08:29:24.331Z"
}