{
  "contractName": "RPS",
  "abi": [
    {
      "constant": true,
      "inputs": [],
      "name": "stake",
      "outputs": [
        {
          "name": "",
          "type": "uint256"
        }
      ],
      "payable": false,
      "stateMutability": "view",
      "type": "function"
    },
    {
      "constant": true,
      "inputs": [],
      "name": "c2",
      "outputs": [
        {
          "name": "",
          "type": "uint8"
        }
      ],
      "payable": false,
      "stateMutability": "view",
      "type": "function"
    },
    {
      "constant": true,
      "inputs": [],
      "name": "c1Hash",
      "outputs": [
        {
          "name": "",
          "type": "bytes32"
        }
      ],
      "payable": false,
      "stateMutability": "view",
      "type": "function"
    },
    {
      "constant": true,
      "inputs": [],
      "name": "j2",
      "outputs": [
        {
          "name": "",
          "type": "address"
        }
      ],
      "payable": false,
      "stateMutability": "view",
      "type": "function"
    },
    {
      "constant": true,
      "inputs": [],
      "name": "lastAction",
      "outputs": [
        {
          "name": "",
          "type": "uint256"
        }
      ],
      "payable": false,
      "stateMutability": "view",
      "type": "function"
    },
    {
      "constant": true,
      "inputs": [],
      "name": "j1",
      "outputs": [
        {
          "name": "",
          "type": "address"
        }
      ],
      "payable": false,
      "stateMutability": "view",
      "type": "function"
    },
    {
      "constant": true,
      "inputs": [],
      "name": "TIMEOUT",
      "outputs": [
        {
          "name": "",
          "type": "uint256"
        }
      ],
      "payable": false,
      "stateMutability": "view",
      "type": "function"
    },
    {
      "inputs": [
        {
          "name": "_c1Hash",
          "type": "bytes32"
        },
        {
          "name": "_j2",
          "type": "address"
        }
      ],
      "payable": true,
      "stateMutability": "payable",
      "type": "constructor"
    },
    {
      "constant": false,
      "inputs": [
        {
          "name": "_c2",
          "type": "uint8"
        }
      ],
      "name": "play",
      "outputs": [],
      "payable": true,
      "stateMutability": "payable",
      "type": "function"
    },
    {
      "constant": false,
      "inputs": [
        {
          "name": "_c1",
          "type": "uint8"
        },
        {
          "name": "_salt",
          "type": "uint256"
        }
      ],
      "name": "solve",
      "outputs": [],
      "payable": false,
      "stateMutability": "nonpayable",
      "type": "function"
    },
    {
      "constant": false,
      "inputs": [],
      "name": "j1Timeout",
      "outputs": [],
      "payable": false,
      "stateMutability": "nonpayable",
      "type": "function"
    },
    {
      "constant": false,
      "inputs": [],
      "name": "j2Timeout",
      "outputs": [],
      "payable": false,
      "stateMutability": "nonpayable",
      "type": "function"
    }
  ],
  "bytecode": "0x608060405261012c600555604051604080610a03833981018060405281019080805190602001909291908051906020019092919050505034600481905550336000806101000a81548173ffffffffffffffffffffffffffffffffffffffff021916908373ffffffffffffffffffffffffffffffffffffffff16021790555080600160006101000a81548173ffffffffffffffffffffffffffffffffffffffff021916908373ffffffffffffffffffffffffffffffffffffffff1602179055508160028160001916905550426006819055505050610922806100e16000396000f3006080604052600436106100af576000357c0100000000000000000000000000000000000000000000000000000000900463ffffffff168063294914a4146100b45780633a4b66f1146100cb57806348e257cb146100f65780634d03e3d21461012f57806353a04b051461016257806380985af91461018557806389f71d53146101dc578063a5ddec7c14610207578063c37597c614610241578063c839114214610298578063f56f48f2146102af575b600080fd5b3480156100c057600080fd5b506100c96102da565b005b3480156100d757600080fd5b506100e0610385565b6040518082815260200191505060405180910390f35b34801561010257600080fd5b5061010b61038b565b6040518082600581111561011b57fe5b60ff16815260200191505060405180910390f35b34801561013b57600080fd5b5061014461039e565b60405180826000191660001916815260200191505060405180910390f35b610183600480360381019080803560ff1690602001909291905050506103a4565b005b34801561019157600080fd5b5061019a610471565b604051808273ffffffffffffffffffffffffffffffffffffffff1673ffffffffffffffffffffffffffffffffffffffff16815260200191505060405180910390f35b3480156101e857600080fd5b506101f1610497565b6040518082815260200191505060405180910390f35b34801561021357600080fd5b5061023f600480360381019080803560ff1690602001909291908035906020019092919050505061049d565b005b34801561024d57600080fd5b50610256610752565b604051808273ffffffffffffffffffffffffffffffffffffffff1673ffffffffffffffffffffffffffffffffffffffff16815260200191505060405180910390f35b3480156102a457600080fd5b506102ad610777565b005b3480156102bb57600080fd5b506102c4610827565b6040518082815260200191505060405180910390f35b600060058111156102e757fe5b600360009054906101000a900460ff16600581111561030257fe5b14151561030e57600080fd5b600554600654014211151561032257600080fd5b6000809054906101000a900473ffffffffffffffffffffffffffffffffffffffff1673ffffffffffffffffffffffffffffffffffffffff166108fc6004549081150290604051600060405180830381858888f19350505050506000600481905550565b60045481565b600360009054906101000a900460ff1681565b60025481565b600060058111156103b157fe5b600360009054906101000a900460ff1660058111156103cc57fe5b1415156103d857600080fd5b600454341415156103e857600080fd5b600160009054906101000a900473ffffffffffffffffffffffffffffffffffffffff1673ffffffffffffffffffffffffffffffffffffffff163373ffffffffffffffffffffffffffffffffffffffff1614151561044457600080fd5b80600360006101000a81548160ff0219169083600581111561046257fe5b02179055504260068190555050565b600160009054906101000a900473ffffffffffffffffffffffffffffffffffffffff1681565b60065481565b600060058111156104aa57fe5b600360009054906101000a900460ff1660058111156104c557fe5b141515156104d257600080fd5b6000809054906101000a900473ffffffffffffffffffffffffffffffffffffffff1673ffffffffffffffffffffffffffffffffffffffff163373ffffffffffffffffffffffffffffffffffffffff1614151561052d57600080fd5b6002546000191682826040518083600581111561054657fe5b60ff167f01000000000000000000000000000000000000000000000000000000000000000281526001018281526020019250505060405180910390206000191614151561059257600080fd5b6105ab82600360009054906101000a900460ff1661082d565b15610611576000809054906101000a900473ffffffffffffffffffffffffffffffffffffffff1673ffffffffffffffffffffffffffffffffffffffff166108fc6004546002029081150290604051600060405180830381858888f1935050505050610746565b61062a600360009054906101000a900460ff168361082d565b1561069157600160009054906101000a900473ffffffffffffffffffffffffffffffffffffffff1673ffffffffffffffffffffffffffffffffffffffff166108fc6004546002029081150290604051600060405180830381858888f1935050505050610745565b6000809054906101000a900473ffffffffffffffffffffffffffffffffffffffff1673ffffffffffffffffffffffffffffffffffffffff166108fc6004549081150290604051600060405180830381858888f1935050505050600160009054906101000a900473ffffffffffffffffffffffffffffffffffffffff1673ffffffffffffffffffffffffffffffffffffffff166108fc6004549081150290604051600060405180830381858888f19350505050505b5b60006004819055505050565b6000809054906101000a900473ffffffffffffffffffffffffffffffffffffffff1681565b6000600581111561078457fe5b600360009054906101000a900460ff16600581111561079f57fe5b141515156107ac57600080fd5b60055460065401421115156107c057600080fd5b600160009054906101000a900473ffffffffffffffffffffffffffffffffffffffff1673ffffffffffffffffffffffffffffffffffffffff166108fc6004546002029081150290604051600060405180830381858888f19350505050506000600481905550565b60055481565b600081600581111561083b57fe5b83600581111561084757fe5b141561085657600090506108f0565b6000600581111561086357fe5b83600581111561086f57fe5b141561087e57600090506108f0565b600282600581111561088c57fe5b81151561089557fe5b0660028460058111156108a457fe5b8115156108ad57fe5b0614156108d4578160058111156108c057fe5b8360058111156108cc57fe5b1090506108f0565b8160058111156108e057fe5b8360058111156108ec57fe5b1190505b929150505600a165627a7a72305820180eca489e6eacd0723f27ac5e7bf3e9e0abe707e64212ff2b84c72447c496f90029",
  "source": "pragma solidity ^0.4.23;\n\ncontract RPS {\n\n    // the 1st player creating the contract\n    address public j1;\n\n    // the 2nd player\n    address public j2;\n\n    // possible moves\n    enum Move { Null, Rock, Paper, Scissors, Spock, Lizard }\n\n    // commitment of j1\n    bytes32 public c1Hash;\n\n    // move of j2. Move.Null before he played\n    Move public c2;\n\n    // amount bet by each party\n    uint256 public stake;\n\n    // if some party takes more than TIMEOUT to respond, the other can call TIMEOUT to win\n    uint256 public TIMEOUT = 5 minutes;\n\n    // the time of the last action. Useful to determine is someone has timed out\n    uint256 public lastAction;\n\n    /**\n     * @dev Must send the amount at stake.\n     * @param _c1Hash Must be equal to keccak256(c1,salt) where c1 is the move of the j1\n     */\n    constructor(bytes32 _c1Hash, address _j2) public payable {\n        stake = msg.value;\n        j1 = msg.sender;\n        j2 = _j2;\n        c1Hash = _c1Hash;\n        lastAction = now;\n    }\n\n    /**\n     * @dev Should be called by j2(player 2) and provided stake\n     * @param _c2 The move submitted by j2 \n     */\n    function play(Move _c2) public payable {\n        require(c2 == Move.Null); // j2 has not played yet\n        require(msg.value == stake); // j2 has played the stake\n        require(msg.sender == j2); // only j2 can call this function\n\n        c2 = _c2;\n        lastAction = now;\n    }\n\n    /**\n     * @dev Called by j1(player1). Reveal the move and the ETH to the winning party or split them.\n     * @param _c1 The move played by j1.\n     * @param _salt The salt used when submitting the commitment when the constructor was called.\n     */\n    function solve(Move _c1, uint256 _salt) public {\n        require(c2 != Move.Null); // j2 must have played\n        require(msg.sender == j1); // j1 can call this\n        require(keccak256(_c1, _salt) == c1Hash); // verify the value is the commited one\n\n        // if j1 or j2 throws at fallback it won't get funds and that is his fault\n        // despite what the warnings say we should not use transfer as a throwing fallback would be able to block the contract, in case of a tie\n        if(win(_c1, c2)) {\n            j1.send(2 * stake);\n        } else if (win(c2, _c1)) {\n            j2.send(2 * stake);\n        } else {\n            j1.send(stake);\n            j2.send(stake);\n        }\n\n        stake = 0;\n    }\n\n    /**\n     * @dev Let j2(player 2) get the funds back if j1(player 1) did not play\n     */\n    function j1Timeout() public {\n        require(c2 != Move.Null); // j2 already played\n        require(now > lastAction + TIMEOUT); // timeout has passed\n        j2.send(2 * stake);\n        stake = 0;\n    }\n\n    /**\n     * @dev Let j1 take back the funds if j2 never play\n     */\n    function j2Timeout() public {\n        require(c2 == Move.Null); // j2 has never played\n        require(now > lastAction + TIMEOUT); // timeout has passed\n        j1.send(stake);\n        stake = 0;\n    }\n\n    /**\n     * @dev Is this move winning over the other\n     * @param _c1 The 1st move\n     * @param _c2 The 2nd move\n     * @return w True if c1 beats c2. False if c1 is beaten by c2 or in case of a tie\n     */\n    function win(Move _c1, Move _c2) private pure returns (bool w) {\n        if(_c1 == _c2) { // tie\n            return false;\n        } else if (_c1 == Move.Null) { // they did not play\n            return false;\n        } else if(uint(_c1) % 2 == uint(_c2) % 2) {\n            return _c1 < _c2;\n        } else {\n            return _c1 > _c2;\n        }\n    }\n\n}",
  "sourcePath": "/var/www/html/truffle/rps/contracts/RPS.sol",
  "compiler": {
    "name": "solc",
    "version": "0.4.24+commit.e67f0147.Emscripten.clang"
  },
  "schemaVersion": "2.0.0",
  "updatedAt": "2018-06-06T08:29:24.231Z"
}